:030000000204BB3C
:0C04BB00787FE4F6D8FD75813002050260
:1005470073746F7020202020202020202000666FE9
:1005570072776F72642020202020200072657665F4
:100567007273652020202020200048656C6C6F2066
:10057700576F726C642000596F752063616E206736
:100587006F20746F20706F736974696F6E203120EC
:1005970000596F752063616E20676F20746F20703C
:1005A7006F736974696F6E20322000596F7520630D
:1005B700616E20676F20746F20706F736974696F45
:0505C7006E203320004E
:10070A000E113030302E3020636D2020303025001D
:10071A00040D000001F40408000000000427000092
:02072A000000CD
:1006DB00C2878BA07F057E001206ECD2877F057E3A
:0106EB00000E
:1006EC00EF1FAA0670011E4A6013E4FCFDC3ED94D3
:0D06FC001EEC940050EA0DBD00010C80F0D2
:0107090022CD
:10074600D2AFD2AC758920759850758DFD758BFD2D
:06075600E4F587D28E22BB
:10075C001201CB6010F599740129F9E43AFA309939
:06076C00FDC29980EB22A2
:10072D007F381207727F081207727F011207727FDE
:09073D00061207727F0C0207721C
:0D077200AB071206E8C2861206DBC2872222
:0D077F00AB071206E8D2861206DBC2872205
:0605CC007B007A007911AA
:1005D2008B2B8A2C892D7F80120772AB2BAA2CA918
:1005E2002D1201CBFF601712077F7401252DF52D07
:1005F200E4352CF52C7F017E001206EC80DD7FC0F5
:10060200120772AB2EAA2FA9301201CBFF6017126C
:10061200077F74012530F530E4352FF52F7F017EF9
:07062200001206EC80DD224E
:10066D00D2B30000000000000000000000000000F8
:10067D000000C2B3AF26AE25AD24AC23EC12010CA5
:10068D007B5B7AB1793F783E12000612014A8F10DA
:07069D008E0F8D0E8C0D2263
:1002D6008F2E8E2D8D2C8C2BE47BE87A03F9F81269
:1002E60006298F27E47B64FAF9F8AF2EAE2DAD2CE4
:1002F600AC2B120629E47B0AFAF9F8120629AF0399
:100306008F28E47B0AFAF9F8AF2EAE2DAD2CAC2B74
:10031600120629E47B0AFAF9F8120629AF038F2997
:10032600E47B0AFAF9F8AF2EAE2DAD2CAC2B1206F3
:1003360029AF038F2AE5272430F511E5282430F567
:1003460012E5292430F513E52A2430F515E47B0A55
:10035600FAF9F8AF2EAE2DAD2CAC2B120629A80457
:10036600A905AA06C374649FF522E49AF521E499C7
:10037600F520E498F51FE47B0AFAF9F8AF22AE21DE
:10038600AD20AC1F120629EF2430F51BE47B0AFAD8
:10039600F9F8AF22AE21AD20AC1F120629EB2430AE
:1003A600F51CE47F50FEFDFCAB22AA21A920A81F64
:1003B600D31201F24033D2B430940DC2AF7BFF7A30
:1003C60005797E12075CD2AF30950DC2AF7BFF7AFE
:1003D60005799812075CD2AF309610C2AF7BFF7AD0
:0C03E6000579B212075CD2AF22C2B4222B
:1003F20012074612072D1206E8438909D2AFD28CA2
:10040200D2A8D288C2B412066DAF10AE0FAD0EAC38
:100412000D1202D6752EFF752F057530471205CCC9
:100422002090223090FD752EFF752F0575305512E4
:1004320005CCD2B5C2B6D2B77F707E171206ECC217
:10044200B5C2B6C2B72091223091FD752EFF752F2D
:10045200057530631205CCC2B5D2B6D2B77F707EB5
:10046200171206ECC2B5C2B6C2B7E50B2401F50BF2
:10047200E4350AF50AE43509F509E43508F508E436
:100482007F32FEFDFCAB0BAA0AA909A808C3120120
:10049200F27002C297E47F3CFEFDFCAB0BAA0AA9F4
:1004A20009A808C31201F26003020408D297F50BEF
:0904B200F50AF509F50802040839
:030003000206A44E
:1006A400C0E0C0D075D000C004C005C006C007AF0C
:1006B4008CEFFEAD8A7C00E42DFFEC3EFEE48F2639
:1006C4008E25F524F523F58CF58AD007D006D005C0
:0706D400D004D0D0D0E032C9
:10000600EC4D6011E8497017ED33EC3304600DE4F4
:10001600FCFFFEFD22E933E8330470F80201B61254
:10002600018158046009E4CC248150062850090255
:1000360001C02840030201BDC0E0EB4A7044B9800C
:1000460006D0E0FB0201ACEF4E701CBD8008EBFF52
:10005600EAFEE9FD80EBE98DF0A4FEE5F00200EF93
:10006600E9CDF9EAFEEBFFEF89F0A4FCE5F0CE89D5
:10007600F0A42EFFE435F0CD89F0A42DFEE435F092
:100086008067EF4E7005BD80D780C3EF8BF0A4ACC0
:10009600F0EE8BF0A42CFCE435F0F8EF8AF0A42CFB
:1000A600E5F038FCE433CB8DF0A42CFCE5F03BF80E
:1000B600EE8AF0A42CFCE5F038F8E433CF89F0A4FE
:1000C6002CFCE5F038CF3400CE89F0A42FFFE5F004
:1000D6003EFEE433C98DF0A42EFEE5F039CD8AF05C
:1000E600A42FFFE5F03EFEE43DFD33D0E0FB5007D4
:1000F6000BBB000F0201C0EC2CFCEF33FFEE33FE0E
:06010600ED33FD0201983B
:10010C0075F020800E75F010800575F0087D007E6E
:10011C00007F003392D530D5031201E4EC3340104C
:10012C00EF33FFEE33FEED33FDEC33FCD5F0ED2277
:0E013C00E5F0247EA2D513CC92E7CDCEFF22B3
:10014A00EDD2E7CD33EC3392D524814006E4FFFEAD
:10015A00FDFC22FCE4CFCECDCC24E0501174FF800C
:10016A00EDC3CC13CCCD13CDCE13CECF13CF0470A9
:07017A00F030D5DE0201E4C4
:10018100E9D2E7C933E833F892D5EDD2E7CD33ECC4
:0701910033FC5002B2D5223D
:10019800EC30E7100FBF000C0EBE00080DBD0004C8
:1001A8000BEB6014A2D5EB13FCED92E7FD2274FF74
:1001B800FCFDFEFF22E480F8A2D574FF13FC7D80CD
:0301C800E480EFE1
:1004C7000203F2E493A3F8E493A34003F68001F256
:1004D70008DFF48029E493A3F85407240CC8C33336
:1004E700C4540F4420C8834004F456800146F6DF05
:1004F700E4800B010204081020408090070AE47E84
:10050700019360BCA3FF543F30E509541FFEE493F9
:10051700A360010ECF54C025E060A840B8E493A3C0
:10052700FAE493A3F8E493A3C8C582C8CAC583CAEB
:10053700F0A3C8C582C8CAC583CADFE9DEE780BEA3
:01072C0000CC
:1001CB00BB010689828A83E0225002E722BBFE0232
:0901DB00E32289828A83E4932265
:10062900C2D5E830E70FB2D5E4C39BFBE49AFAE4FC
:1006390099F9E498F8EC30E717B2D512065F12027F
:1006490044E4C39BFBE49AFAE499F9E498F880033B
:1006590012024430D50DE4C39FFFE49EFEE49DFDE4
:04066900E49CFC22EF
:0E01E400C3E49FFFE49EFEE49DFDE49CFC222C
:1001F200EB9FF5F0EA9E42F0E99D42F0EC6480C884
:0602020064809845F02223
:1002080075F008758200EF2FFFEE33FECD33CDCCAD
:1002180033CCC58233C5829BED9AEC99E582984030
:100228000CF582EE9BFEED9AFDEC99FC0FD5F0D60D
:10023800E4CEFBE4CDFAE4CCF9A88222B800C1B937
:100248000059BA002DEC8BF084CFCECDFCE5F0CB75
:10025800F97818EF2FFFEE33FEED33FDEC33FCEBAE
:1002680033FB10D703994004EB99FB0FD8E5E4F969
:10027800FA227818EF2FFFEE33FEED33FDEC33FC56
:10028800C933C910D7059BE99A4007EC9BFCE99A4A
:10029800F90FD8E0E4C9FAE4CCFB2275F010EF2F8F
:1002A800FFEE33FEED33FDCC33CCC833C810D7078F
:1002B8009BEC9AE899400AED9BFDEC9AFCE899F8CA
:0E02C8000FD5F0DAE4CDFBE4CCFAE4C8F9225D
:00000001FF
